{
  "_format": "hh-sol-artifact-1",
  "contractName": "DocumentRegistryTemplate",
  "sourceName": "contracts/DocumentRegistryTemplate.sol",
  "abi": [
    {
      "inputs": [
        {
          "internalType": "address",
          "name": "initialOwner",
          "type": "address"
        }
      ],
      "stateMutability": "nonpayable",
      "type": "constructor"
    },
    {
      "anonymous": false,
      "inputs": [
        {
          "indexed": true,
          "internalType": "bytes32",
          "name": "docId",
          "type": "bytes32"
        },
        {
          "indexed": true,
          "internalType": "bytes32",
          "name": "docHash",
          "type": "bytes32"
        },
        {
          "indexed": true,
          "internalType": "address",
          "name": "issuer",
          "type": "address"
        },
        {
          "indexed": false,
          "internalType": "string",
          "name": "uri",
          "type": "string"
        },
        {
          "indexed": false,
          "internalType": "uint256",
          "name": "timestamp",
          "type": "uint256"
        }
      ],
      "name": "DocumentRegistered",
      "type": "event"
    },
    {
      "anonymous": false,
      "inputs": [
        {
          "indexed": true,
          "internalType": "address",
          "name": "previousOwner",
          "type": "address"
        },
        {
          "indexed": true,
          "internalType": "address",
          "name": "newOwner",
          "type": "address"
        }
      ],
      "name": "OwnershipTransferred",
      "type": "event"
    },
    {
      "inputs": [],
      "name": "owner",
      "outputs": [
        {
          "internalType": "address",
          "name": "",
          "type": "address"
        }
      ],
      "stateMutability": "view",
      "type": "function"
    },
    {
      "inputs": [
        {
          "internalType": "bytes32",
          "name": "docId",
          "type": "bytes32"
        },
        {
          "internalType": "bytes32",
          "name": "docHash",
          "type": "bytes32"
        },
        {
          "internalType": "string",
          "name": "uri",
          "type": "string"
        }
      ],
      "name": "registerDocument",
      "outputs": [],
      "stateMutability": "nonpayable",
      "type": "function"
    },
    {
      "inputs": [
        {
          "internalType": "address",
          "name": "newOwner",
          "type": "address"
        }
      ],
      "name": "transferOwnership",
      "outputs": [],
      "stateMutability": "nonpayable",
      "type": "function"
    },
    {
      "inputs": [
        {
          "internalType": "bytes32",
          "name": "docId",
          "type": "bytes32"
        },
        {
          "internalType": "bytes32",
          "name": "docHash",
          "type": "bytes32"
        }
      ],
      "name": "verifyDocument",
      "outputs": [
        {
          "internalType": "bool",
          "name": "",
          "type": "bool"
        }
      ],
      "stateMutability": "view",
      "type": "function"
    }
  ],
  "bytecode": "0x60806040523480156200001157600080fd5b506040516200108e3803806200108e83398181016040528101906200003791906200015a565b600073ffffffffffffffffffffffffffffffffffffffff168173ffffffffffffffffffffffffffffffffffffffff1603620000a9576040517f08c379a0000000000000000000000000000000000000000000000000000000008152600401620000a090620001ed565b60405180910390fd5b806000806101000a81548173ffffffffffffffffffffffffffffffffffffffff021916908373ffffffffffffffffffffffffffffffffffffffff160217905550506200020f565b600080fd5b600073ffffffffffffffffffffffffffffffffffffffff82169050919050565b60006200012282620000f5565b9050919050565b620001348162000115565b81146200014057600080fd5b50565b600081519050620001548162000129565b92915050565b600060208284031215620001735762000172620000f0565b5b6000620001838482850162000143565b91505092915050565b600082825260208201905092915050565b7f496e76616c6964206f776e657200000000000000000000000000000000000000600082015250565b6000620001d5600d836200018c565b9150620001e2826200019d565b602082019050919050565b600060208201905081810360008301526200020881620001c6565b9050919050565b610e6f806200021f6000396000f3fe608060405234801561001057600080fd5b506004361061004c5760003560e01c80631626e1a9146100515780638da5cb5b1461006d5780638fa9a8ce1461008b578063f2fde38b146100bb575b600080fd5b61006b60048036038101906100669190610729565b6100d7565b005b61007561035f565b60405161008291906107de565b60405180910390f35b6100a560048036038101906100a091906107f9565b610383565b6040516100b29190610854565b60405180910390f35b6100d560048036038101906100d0919061089b565b6104c3565b005b60008054906101000a900473ffffffffffffffffffffffffffffffffffffffff1673ffffffffffffffffffffffffffffffffffffffff163373ffffffffffffffffffffffffffffffffffffffff1614610165576040517f08c379a000000000000000000000000000000000000000000000000000000000815260040161015c90610925565b60405180910390fd5b60006001600086815260200190815260200160002060020154146101be576040517f08c379a00000000000000000000000000000000000000000000000000000000081526004016101b590610991565b60405180910390fd5b6000801b8303610203576040517f08c379a00000000000000000000000000000000000000000000000000000000081526004016101fa906109fd565b60405180910390fd5b60405180608001604052808481526020013373ffffffffffffffffffffffffffffffffffffffff16815260200142815260200183838080601f016020809104026020016040519081016040528093929190818152602001838380828437600081840152601f19601f82011690508083019250505050505050815250600160008681526020019081526020016000206000820151816000015560208201518160010160006101000a81548173ffffffffffffffffffffffffffffffffffffffff021916908373ffffffffffffffffffffffffffffffffffffffff1602179055506040820151816002015560608201518160030190816103019190610c6d565b509050503373ffffffffffffffffffffffffffffffffffffffff1683857ff2a57d6483e392844eb538038be119b1fcc2570fa8c45d8cb73a7616160c0e1c85854260405161035193929190610d9b565b60405180910390a450505050565b60008054906101000a900473ffffffffffffffffffffffffffffffffffffffff1681565b60008060016000858152602001908152602001600020604051806080016040529081600082015481526020016001820160009054906101000a900473ffffffffffffffffffffffffffffffffffffffff1673ffffffffffffffffffffffffffffffffffffffff1673ffffffffffffffffffffffffffffffffffffffff1681526020016002820154815260200160038201805461041e90610a86565b80601f016020809104026020016040519081016040528092919081815260200182805461044a90610a86565b80156104975780601f1061046c57610100808354040283529160200191610497565b820191906000526020600020905b81548152906001019060200180831161047a57829003601f168201915b505050505081525050905060008160400151141580156104ba5750828160000151145b91505092915050565b60008054906101000a900473ffffffffffffffffffffffffffffffffffffffff1673ffffffffffffffffffffffffffffffffffffffff163373ffffffffffffffffffffffffffffffffffffffff1614610551576040517f08c379a000000000000000000000000000000000000000000000000000000000815260040161054890610925565b60405180910390fd5b600073ffffffffffffffffffffffffffffffffffffffff168173ffffffffffffffffffffffffffffffffffffffff16036105c0576040517f08c379a00000000000000000000000000000000000000000000000000000000081526004016105b790610e19565b60405180910390fd5b60008060009054906101000a900473ffffffffffffffffffffffffffffffffffffffff169050816000806101000a81548173ffffffffffffffffffffffffffffffffffffffff021916908373ffffffffffffffffffffffffffffffffffffffff1602179055508173ffffffffffffffffffffffffffffffffffffffff168173ffffffffffffffffffffffffffffffffffffffff167f8be0079c531659141344cd1fd0a4f28419497f9722a3daafe3b4186f6b6457e060405160405180910390a35050565b600080fd5b600080fd5b6000819050919050565b6106a18161068e565b81146106ac57600080fd5b50565b6000813590506106be81610698565b92915050565b600080fd5b600080fd5b600080fd5b60008083601f8401126106e9576106e86106c4565b5b8235905067ffffffffffffffff811115610706576107056106c9565b5b602083019150836001820283011115610722576107216106ce565b5b9250929050565b6000806000806060858703121561074357610742610684565b5b6000610751878288016106af565b9450506020610762878288016106af565b935050604085013567ffffffffffffffff81111561078357610782610689565b5b61078f878288016106d3565b925092505092959194509250565b600073ffffffffffffffffffffffffffffffffffffffff82169050919050565b60006107c88261079d565b9050919050565b6107d8816107bd565b82525050565b60006020820190506107f360008301846107cf565b92915050565b600080604083850312156108105761080f610684565b5b600061081e858286016106af565b925050602061082f858286016106af565b9150509250929050565b60008115159050919050565b61084e81610839565b82525050565b60006020820190506108696000830184610845565b92915050565b610878816107bd565b811461088357600080fd5b50565b6000813590506108958161086f565b92915050565b6000602082840312156108b1576108b0610684565b5b60006108bf84828501610886565b91505092915050565b600082825260208201905092915050565b7f4e6f74206f776e65720000000000000000000000000000000000000000000000600082015250565b600061090f6009836108c8565b915061091a826108d9565b602082019050919050565b6000602082019050818103600083015261093e81610902565b9050919050565b7f446f63756d656e74206578697374730000000000000000000000000000000000600082015250565b600061097b600f836108c8565b915061098682610945565b602082019050919050565b600060208201905081810360008301526109aa8161096e565b9050919050565b7f496e76616c696420686173680000000000000000000000000000000000000000600082015250565b60006109e7600c836108c8565b91506109f2826109b1565b602082019050919050565b60006020820190508181036000830152610a16816109da565b9050919050565b600081519050919050565b7f4e487b7100000000000000000000000000000000000000000000000000000000600052604160045260246000fd5b7f4e487b7100000000000000000000000000000000000000000000000000000000600052602260045260246000fd5b60006002820490506001821680610a9e57607f821691505b602082108103610ab157610ab0610a57565b5b50919050565b60008190508160005260206000209050919050565b60006020601f8301049050919050565b600082821b905092915050565b600060088302610b197fffffffffffffffffffffffffffffffffffffffffffffffffffffffffffffffff82610adc565b610b238683610adc565b95508019841693508086168417925050509392505050565b6000819050919050565b6000819050919050565b6000610b6a610b65610b6084610b3b565b610b45565b610b3b565b9050919050565b6000819050919050565b610b8483610b4f565b610b98610b9082610b71565b848454610ae9565b825550505050565b600090565b610bad610ba0565b610bb8818484610b7b565b505050565b5b81811015610bdc57610bd1600082610ba5565b600181019050610bbe565b5050565b601f821115610c2157610bf281610ab7565b610bfb84610acc565b81016020851015610c0a578190505b610c1e610c1685610acc565b830182610bbd565b50505b505050565b600082821c905092915050565b6000610c4460001984600802610c26565b1980831691505092915050565b6000610c5d8383610c33565b9150826002028217905092915050565b610c7682610a1d565b67ffffffffffffffff811115610c8f57610c8e610a28565b5b610c998254610a86565b610ca4828285610be0565b600060209050601f831160018114610cd75760008415610cc5578287015190505b610ccf8582610c51565b865550610d37565b601f198416610ce586610ab7565b60005b82811015610d0d57848901518255600182019150602085019450602081019050610ce8565b86831015610d2a5784890151610d26601f891682610c33565b8355505b6001600288020188555050505b505050505050565b82818337600083830152505050565b6000601f19601f8301169050919050565b6000610d6b83856108c8565b9350610d78838584610d3f565b610d8183610d4e565b840190509392505050565b610d9581610b3b565b82525050565b60006040820190508181036000830152610db6818587610d5f565b9050610dc56020830184610d8c565b949350505050565b7f496e76616c6964206f776e657200000000000000000000000000000000000000600082015250565b6000610e03600d836108c8565b9150610e0e82610dcd565b602082019050919050565b60006020820190508181036000830152610e3281610df6565b905091905056fea2646970667358221220ceb2c97667668de3e39170d8fef91f4ebde761e25ed1ff26b03b304f5cdc409864736f6c63430008140033",
  "linkReferences": {},
  "deployedLinkReferences": {}
}