{
  "_format": "hh-sol-artifact-1",
  "contractName": "RegistryFactory",
  "sourceName": "contracts/RegistryFactory.sol",
  "abi": [
    {
      "anonymous": false,
      "inputs": [
        {
          "indexed": true,
          "internalType": "uint256",
          "name": "registryId",
          "type": "uint256"
        },
        {
          "indexed": true,
          "internalType": "address",
          "name": "owner",
          "type": "address"
        },
        {
          "indexed": false,
          "internalType": "uint8",
          "name": "templateType",
          "type": "uint8"
        },
        {
          "indexed": false,
          "internalType": "address",
          "name": "verificationRegistry",
          "type": "address"
        },
        {
          "indexed": false,
          "internalType": "address",
          "name": "revocationRegistry",
          "type": "address"
        },
        {
          "indexed": false,
          "internalType": "bytes32",
          "name": "configHash",
          "type": "bytes32"
        },
        {
          "indexed": false,
          "internalType": "string",
          "name": "name",
          "type": "string"
        }
      ],
      "name": "RegistryCreated",
      "type": "event"
    },
    {
      "inputs": [
        {
          "internalType": "uint8",
          "name": "templateType",
          "type": "uint8"
        },
        {
          "internalType": "bytes32",
          "name": "configHash",
          "type": "bytes32"
        },
        {
          "internalType": "string",
          "name": "name",
          "type": "string"
        }
      ],
      "name": "createRegistry",
      "outputs": [
        {
          "internalType": "uint256",
          "name": "registryId",
          "type": "uint256"
        },
        {
          "internalType": "address",
          "name": "verificationRegistry",
          "type": "address"
        },
        {
          "internalType": "address",
          "name": "revocationRegistry",
          "type": "address"
        }
      ],
      "stateMutability": "nonpayable",
      "type": "function"
    },
    {
      "inputs": [
        {
          "internalType": "address",
          "name": "owner",
          "type": "address"
        }
      ],
      "name": "getOwnerRegistries",
      "outputs": [
        {
          "internalType": "uint256[]",
          "name": "",
          "type": "uint256[]"
        }
      ],
      "stateMutability": "view",
      "type": "function"
    },
    {
      "inputs": [],
      "name": "nextRegistryId",
      "outputs": [
        {
          "internalType": "uint256",
          "name": "",
          "type": "uint256"
        }
      ],
      "stateMutability": "view",
      "type": "function"
    },
    {
      "inputs": [
        {
          "internalType": "uint256",
          "name": "",
          "type": "uint256"
        }
      ],
      "name": "registries",
      "outputs": [
        {
          "internalType": "uint256",
          "name": "id",
          "type": "uint256"
        },
        {
          "internalType": "address",
          "name": "owner",
          "type": "address"
        },
        {
          "internalType": "enum RegistryFactory.TemplateType",
          "name": "templateType",
          "type": "uint8"
        },
        {
          "internalType": "address",
          "name": "verificationRegistry",
          "type": "address"
        },
        {
          "internalType": "address",
          "name": "revocationRegistry",
          "type": "address"
        },
        {
          "internalType": "bytes32",
          "name": "configHash",
          "type": "bytes32"
        },
        {
          "internalType": "string",
          "name": "name",
          "type": "string"
        },
        {
          "internalType": "uint256",
          "name": "createdAt",
          "type": "uint256"
        }
      ],
      "stateMutability": "view",
      "type": "function"
    }
  ],
  "bytecode": "0x6080604052600160005534801561001557600080fd5b50613fe0806100256000396000f3fe60806040523480156200001157600080fd5b5060043610620000525760003560e01c80633af6b04f14620000575780635321336d146200008f5780636347c90014620000c557806392acb0c01462000102575b600080fd5b6200007560048036038101906200006f919062000926565b62000124565b604051620000869392919062000a06565b60405180910390f35b620000ad6004803603810190620000a7919062000a74565b62000627565b604051620000bc919062000b74565b60405180910390f35b620000e36004803603810190620000dd919062000bc9565b620006c0565b604051620000f998979695949392919062000d26565b60405180910390f35b6200010c62000805565b6040516200011b919062000dbb565b60405180910390f35b600080600080858590501162000171576040517f08c379a0000000000000000000000000000000000000000000000000000000008152600401620001689062000e28565b60405180910390fd5b60028081111562000187576200018662000bfb565b5b60ff168760ff161115620001d2576040517f08c379a0000000000000000000000000000000000000000000000000000000008152600401620001c99062000e9a565b60405180910390fd5b60008760ff166002811115620001ed57620001ec62000bfb565b5b90506000600281111562000206576200020562000bfb565b5b8160028111156200021c576200021b62000bfb565b5b0362000263573360405162000231906200080b565b6200023d919062000ebc565b604051809103906000f0801580156200025a573d6000803e3d6000fd5b50925062000314565b600160028111156200027a576200027962000bfb565b5b81600281111562000290576200028f62000bfb565b5b03620002d75733604051620002a59062000819565b620002b1919062000ebc565b604051809103906000f080158015620002ce573d6000803e3d6000fd5b50925062000313565b33604051620002e69062000827565b620002f2919062000ebc565b604051809103906000f0801580156200030f573d6000803e3d6000fd5b5092505b5b600091506000808154809291906200032c9062000f08565b9190505593506040518061010001604052808581526020013373ffffffffffffffffffffffffffffffffffffffff16815260200182600281111562000376576200037562000bfb565b5b81526020018473ffffffffffffffffffffffffffffffffffffffff1681526020018373ffffffffffffffffffffffffffffffffffffffff16815260200188815260200187878080601f016020809104026020016040519081016040528093929190818152602001838380828437600081840152601f19601f82011690508083019250505050505050815260200142815250600160008681526020019081526020016000206000820151816000015560208201518160010160006101000a81548173ffffffffffffffffffffffffffffffffffffffff021916908373ffffffffffffffffffffffffffffffffffffffff16021790555060408201518160010160146101000a81548160ff0219169083600281111562000499576200049862000bfb565b5b021790555060608201518160020160006101000a81548173ffffffffffffffffffffffffffffffffffffffff021916908373ffffffffffffffffffffffffffffffffffffffff16021790555060808201518160030160006101000a81548173ffffffffffffffffffffffffffffffffffffffff021916908373ffffffffffffffffffffffffffffffffffffffff16021790555060a0820151816004015560c08201518160050190816200054d9190620011ba565b5060e08201518160060155905050600260003373ffffffffffffffffffffffffffffffffffffffff1673ffffffffffffffffffffffffffffffffffffffff1681526020019081526020016000208490806001815401808255809150506001900390600052602060002001600090919091909150553373ffffffffffffffffffffffffffffffffffffffff16847fe5f1799d2d6faf1bc67ea45be9676b895a57631e6f5af68c5db70c153e4d71548a86868c8c8c6040516200061496959493929190620012f4565b60405180910390a3509450945094915050565b6060600260008373ffffffffffffffffffffffffffffffffffffffff1673ffffffffffffffffffffffffffffffffffffffff168152602001908152602001600020805480602002602001604051908101604052809291908181526020018280548015620006b457602002820191906000526020600020905b8154815260200190600101908083116200069f575b50505050509050919050565b60016020528060005260406000206000915090508060000154908060010160009054906101000a900473ffffffffffffffffffffffffffffffffffffffff16908060010160149054906101000a900460ff16908060020160009054906101000a900473ffffffffffffffffffffffffffffffffffffffff16908060030160009054906101000a900473ffffffffffffffffffffffffffffffffffffffff1690806004015490806005018054620007769062000fb3565b80601f0160208091040260200160405190810160405280929190818152602001828054620007a49062000fb3565b8015620007f55780601f10620007c957610100808354040283529160200191620007f5565b820191906000526020600020905b815481529060010190602001808311620007d757829003601f168201915b5050505050908060060154905088565b60005481565b61108e806200135b83390190565b610de180620023e983390190565b610de180620031ca83390190565b600080fd5b600080fd5b600060ff82169050919050565b62000857816200083f565b81146200086357600080fd5b50565b60008135905062000877816200084c565b92915050565b6000819050919050565b62000892816200087d565b81146200089e57600080fd5b50565b600081359050620008b28162000887565b92915050565b600080fd5b600080fd5b600080fd5b60008083601f840112620008e057620008df620008b8565b5b8235905067ffffffffffffffff8111156200090057620008ff620008bd565b5b6020830191508360018202830111156200091f576200091e620008c2565b5b9250929050565b6000806000806060858703121562000943576200094262000835565b5b6000620009538782880162000866565b94505060206200096687828801620008a1565b935050604085013567ffffffffffffffff8111156200098a57620009896200083a565b5b6200099887828801620008c7565b925092505092959194509250565b6000819050919050565b620009bb81620009a6565b82525050565b600073ffffffffffffffffffffffffffffffffffffffff82169050919050565b6000620009ee82620009c1565b9050919050565b62000a0081620009e1565b82525050565b600060608201905062000a1d6000830186620009b0565b62000a2c6020830185620009f5565b62000a3b6040830184620009f5565b949350505050565b62000a4e81620009e1565b811462000a5a57600080fd5b50565b60008135905062000a6e8162000a43565b92915050565b60006020828403121562000a8d5762000a8c62000835565b5b600062000a9d8482850162000a5d565b91505092915050565b600081519050919050565b600082825260208201905092915050565b6000819050602082019050919050565b62000add81620009a6565b82525050565b600062000af1838362000ad2565b60208301905092915050565b6000602082019050919050565b600062000b178262000aa6565b62000b23818562000ab1565b935062000b308362000ac2565b8060005b8381101562000b6757815162000b4b888262000ae3565b975062000b588362000afd565b92505060018101905062000b34565b5085935050505092915050565b6000602082019050818103600083015262000b90818462000b0a565b905092915050565b62000ba381620009a6565b811462000baf57600080fd5b50565b60008135905062000bc38162000b98565b92915050565b60006020828403121562000be25762000be162000835565b5b600062000bf28482850162000bb2565b91505092915050565b7f4e487b7100000000000000000000000000000000000000000000000000000000600052602160045260246000fd5b6003811062000c3e5762000c3d62000bfb565b5b50565b600081905062000c518262000c2a565b919050565b600062000c638262000c41565b9050919050565b62000c758162000c56565b82525050565b62000c86816200087d565b82525050565b600081519050919050565b600082825260208201905092915050565b60005b8381101562000cc857808201518184015260208101905062000cab565b60008484015250505050565b6000601f19601f8301169050919050565b600062000cf28262000c8c565b62000cfe818562000c97565b935062000d1081856020860162000ca8565b62000d1b8162000cd4565b840191505092915050565b60006101008201905062000d3e600083018b620009b0565b62000d4d602083018a620009f5565b62000d5c604083018962000c6a565b62000d6b6060830188620009f5565b62000d7a6080830187620009f5565b62000d8960a083018662000c7b565b81810360c083015262000d9d818562000ce5565b905062000dae60e0830184620009b0565b9998505050505050505050565b600060208201905062000dd26000830184620009b0565b92915050565b7f4e616d6520726571756972656400000000000000000000000000000000000000600082015250565b600062000e10600d8362000c97565b915062000e1d8262000dd8565b602082019050919050565b6000602082019050818103600083015262000e438162000e01565b9050919050565b7f496e76616c69642074656d706c61746500000000000000000000000000000000600082015250565b600062000e8260108362000c97565b915062000e8f8262000e4a565b602082019050919050565b6000602082019050818103600083015262000eb58162000e73565b9050919050565b600060208201905062000ed36000830184620009f5565b92915050565b7f4e487b7100000000000000000000000000000000000000000000000000000000600052601160045260246000fd5b600062000f1582620009a6565b91507fffffffffffffffffffffffffffffffffffffffffffffffffffffffffffffffff820362000f4a5762000f4962000ed9565b5b600182019050919050565b7f4e487b7100000000000000000000000000000000000000000000000000000000600052604160045260246000fd5b7f4e487b7100000000000000000000000000000000000000000000000000000000600052602260045260246000fd5b6000600282049050600182168062000fcc57607f821691505b60208210810362000fe25762000fe162000f84565b5b50919050565b60008190508160005260206000209050919050565b60006020601f8301049050919050565b600082821b905092915050565b6000600883026200104c7fffffffffffffffffffffffffffffffffffffffffffffffffffffffffffffffff826200100d565b6200105886836200100d565b95508019841693508086168417925050509392505050565b6000819050919050565b60006200109b620010956200108f84620009a6565b62001070565b620009a6565b9050919050565b6000819050919050565b620010b7836200107a565b620010cf620010c682620010a2565b8484546200101a565b825550505050565b600090565b620010e6620010d7565b620010f3818484620010ac565b505050565b5b818110156200111b576200110f600082620010dc565b600181019050620010f9565b5050565b601f8211156200116a57620011348162000fe8565b6200113f8462000ffd565b810160208510156200114f578190505b620011676200115e8562000ffd565b830182620010f8565b50505b505050565b600082821c905092915050565b60006200118f600019846008026200116f565b1980831691505092915050565b6000620011aa83836200117c565b9150826002028217905092915050565b620011c58262000c8c565b67ffffffffffffffff811115620011e157620011e062000f55565b5b620011ed825462000fb3565b620011fa8282856200111f565b600060209050601f8311600181146200123257600084156200121d578287015190505b6200122985826200119c565b86555062001299565b601f198416620012428662000fe8565b60005b828110156200126c5784890151825560018201915060208501945060208101905062001245565b868310156200128c578489015162001288601f8916826200117c565b8355505b6001600288020188555050505b505050505050565b620012ac816200083f565b82525050565b82818337600083830152505050565b6000620012cf838562000c97565b9350620012de838584620012b2565b620012e98362000cd4565b840190509392505050565b600060a0820190506200130b6000830189620012a1565b6200131a6020830188620009f5565b620013296040830187620009f5565b62001338606083018662000c7b565b81810360808301526200134d818486620012c1565b905097965050505050505056fe60806040523480156200001157600080fd5b506040516200108e3803806200108e83398181016040528101906200003791906200015a565b600073ffffffffffffffffffffffffffffffffffffffff168173ffffffffffffffffffffffffffffffffffffffff1603620000a9576040517f08c379a0000000000000000000000000000000000000000000000000000000008152600401620000a090620001ed565b60405180910390fd5b806000806101000a81548173ffffffffffffffffffffffffffffffffffffffff021916908373ffffffffffffffffffffffffffffffffffffffff160217905550506200020f565b600080fd5b600073ffffffffffffffffffffffffffffffffffffffff82169050919050565b60006200012282620000f5565b9050919050565b620001348162000115565b81146200014057600080fd5b50565b600081519050620001548162000129565b92915050565b600060208284031215620001735762000172620000f0565b5b6000620001838482850162000143565b91505092915050565b600082825260208201905092915050565b7f496e76616c6964206f776e657200000000000000000000000000000000000000600082015250565b6000620001d5600d836200018c565b9150620001e2826200019d565b602082019050919050565b600060208201905081810360008301526200020881620001c6565b9050919050565b610e6f806200021f6000396000f3fe608060405234801561001057600080fd5b506004361061004c5760003560e01c80631626e1a9146100515780638da5cb5b1461006d5780638fa9a8ce1461008b578063f2fde38b146100bb575b600080fd5b61006b60048036038101906100669190610729565b6100d7565b005b61007561035f565b60405161008291906107de565b60405180910390f35b6100a560048036038101906100a091906107f9565b610383565b6040516100b29190610854565b60405180910390f35b6100d560048036038101906100d0919061089b565b6104c3565b005b60008054906101000a900473ffffffffffffffffffffffffffffffffffffffff1673ffffffffffffffffffffffffffffffffffffffff163373ffffffffffffffffffffffffffffffffffffffff1614610165576040517f08c379a000000000000000000000000000000000000000000000000000000000815260040161015c90610925565b60405180910390fd5b60006001600086815260200190815260200160002060020154146101be576040517f08c379a00000000000000000000000000000000000000000000000000000000081526004016101b590610991565b60405180910390fd5b6000801b8303610203576040517f08c379a00000000000000000000000000000000000000000000000000000000081526004016101fa906109fd565b60405180910390fd5b60405180608001604052808481526020013373ffffffffffffffffffffffffffffffffffffffff16815260200142815260200183838080601f016020809104026020016040519081016040528093929190818152602001838380828437600081840152601f19601f82011690508083019250505050505050815250600160008681526020019081526020016000206000820151816000015560208201518160010160006101000a81548173ffffffffffffffffffffffffffffffffffffffff021916908373ffffffffffffffffffffffffffffffffffffffff1602179055506040820151816002015560608201518160030190816103019190610c6d565b509050503373ffffffffffffffffffffffffffffffffffffffff1683857ff2a57d6483e392844eb538038be119b1fcc2570fa8c45d8cb73a7616160c0e1c85854260405161035193929190610d9b565b60405180910390a450505050565b60008054906101000a900473ffffffffffffffffffffffffffffffffffffffff1681565b60008060016000858152602001908152602001600020604051806080016040529081600082015481526020016001820160009054906101000a900473ffffffffffffffffffffffffffffffffffffffff1673ffffffffffffffffffffffffffffffffffffffff1673ffffffffffffffffffffffffffffffffffffffff1681526020016002820154815260200160038201805461041e90610a86565b80601f016020809104026020016040519081016040528092919081815260200182805461044a90610a86565b80156104975780601f1061046c57610100808354040283529160200191610497565b820191906000526020600020905b81548152906001019060200180831161047a57829003601f168201915b505050505081525050905060008160400151141580156104ba5750828160000151145b91505092915050565b60008054906101000a900473ffffffffffffffffffffffffffffffffffffffff1673ffffffffffffffffffffffffffffffffffffffff163373ffffffffffffffffffffffffffffffffffffffff1614610551576040517f08c379a000000000000000000000000000000000000000000000000000000000815260040161054890610925565b60405180910390fd5b600073ffffffffffffffffffffffffffffffffffffffff168173ffffffffffffffffffffffffffffffffffffffff16036105c0576040517f08c379a00000000000000000000000000000000000000000000000000000000081526004016105b790610e19565b60405180910390fd5b60008060009054906101000a900473ffffffffffffffffffffffffffffffffffffffff169050816000806101000a81548173ffffffffffffffffffffffffffffffffffffffff021916908373ffffffffffffffffffffffffffffffffffffffff1602179055508173ffffffffffffffffffffffffffffffffffffffff168173ffffffffffffffffffffffffffffffffffffffff167f8be0079c531659141344cd1fd0a4f28419497f9722a3daafe3b4186f6b6457e060405160405180910390a35050565b600080fd5b600080fd5b6000819050919050565b6106a18161068e565b81146106ac57600080fd5b50565b6000813590506106be81610698565b92915050565b600080fd5b600080fd5b600080fd5b60008083601f8401126106e9576106e86106c4565b5b8235905067ffffffffffffffff811115610706576107056106c9565b5b602083019150836001820283011115610722576107216106ce565b5b9250929050565b6000806000806060858703121561074357610742610684565b5b6000610751878288016106af565b9450506020610762878288016106af565b935050604085013567ffffffffffffffff81111561078357610782610689565b5b61078f878288016106d3565b925092505092959194509250565b600073ffffffffffffffffffffffffffffffffffffffff82169050919050565b60006107c88261079d565b9050919050565b6107d8816107bd565b82525050565b60006020820190506107f360008301846107cf565b92915050565b600080604083850312156108105761080f610684565b5b600061081e858286016106af565b925050602061082f858286016106af565b9150509250929050565b60008115159050919050565b61084e81610839565b82525050565b60006020820190506108696000830184610845565b92915050565b610878816107bd565b811461088357600080fd5b50565b6000813590506108958161086f565b92915050565b6000602082840312156108b1576108b0610684565b5b60006108bf84828501610886565b91505092915050565b600082825260208201905092915050565b7f4e6f74206f776e65720000000000000000000000000000000000000000000000600082015250565b600061090f6009836108c8565b915061091a826108d9565b602082019050919050565b6000602082019050818103600083015261093e81610902565b9050919050565b7f446f63756d656e74206578697374730000000000000000000000000000000000600082015250565b600061097b600f836108c8565b915061098682610945565b602082019050919050565b600060208201905081810360008301526109aa8161096e565b9050919050565b7f496e76616c696420686173680000000000000000000000000000000000000000600082015250565b60006109e7600c836108c8565b91506109f2826109b1565b602082019050919050565b60006020820190508181036000830152610a16816109da565b9050919050565b600081519050919050565b7f4e487b7100000000000000000000000000000000000000000000000000000000600052604160045260246000fd5b7f4e487b7100000000000000000000000000000000000000000000000000000000600052602260045260246000fd5b60006002820490506001821680610a9e57607f821691505b602082108103610ab157610ab0610a57565b5b50919050565b60008190508160005260206000209050919050565b60006020601f8301049050919050565b600082821b905092915050565b600060088302610b197fffffffffffffffffffffffffffffffffffffffffffffffffffffffffffffffff82610adc565b610b238683610adc565b95508019841693508086168417925050509392505050565b6000819050919050565b6000819050919050565b6000610b6a610b65610b6084610b3b565b610b45565b610b3b565b9050919050565b6000819050919050565b610b8483610b4f565b610b98610b9082610b71565b848454610ae9565b825550505050565b600090565b610bad610ba0565b610bb8818484610b7b565b505050565b5b81811015610bdc57610bd1600082610ba5565b600181019050610bbe565b5050565b601f821115610c2157610bf281610ab7565b610bfb84610acc565b81016020851015610c0a578190505b610c1e610c1685610acc565b830182610bbd565b50505b505050565b600082821c905092915050565b6000610c4460001984600802610c26565b1980831691505092915050565b6000610c5d8383610c33565b9150826002028217905092915050565b610c7682610a1d565b67ffffffffffffffff811115610c8f57610c8e610a28565b5b610c998254610a86565b610ca4828285610be0565b600060209050601f831160018114610cd75760008415610cc5578287015190505b610ccf8582610c51565b865550610d37565b601f198416610ce586610ab7565b60005b82811015610d0d57848901518255600182019150602085019450602081019050610ce8565b86831015610d2a5784890151610d26601f891682610c33565b8355505b6001600288020188555050505b505050505050565b82818337600083830152505050565b6000601f19601f8301169050919050565b6000610d6b83856108c8565b9350610d78838584610d3f565b610d8183610d4e565b840190509392505050565b610d9581610b3b565b82525050565b60006040820190508181036000830152610db6818587610d5f565b9050610dc56020830184610d8c565b949350505050565b7f496e76616c6964206f776e657200000000000000000000000000000000000000600082015250565b6000610e03600d836108c8565b9150610e0e82610dcd565b602082019050919050565b60006020820190508181036000830152610e3281610df6565b905091905056fea2646970667358221220ceb2c97667668de3e39170d8fef91f4ebde761e25ed1ff26b03b304f5cdc409864736f6c6343000814003360806040523480156200001157600080fd5b5060405162000de138038062000de183398181016040528101906200003791906200015a565b600073ffffffffffffffffffffffffffffffffffffffff168173ffffffffffffffffffffffffffffffffffffffff1603620000a9576040517f08c379a0000000000000000000000000000000000000000000000000000000008152600401620000a090620001ed565b60405180910390fd5b806000806101000a81548173ffffffffffffffffffffffffffffffffffffffff021916908373ffffffffffffffffffffffffffffffffffffffff160217905550506200020f565b600080fd5b600073ffffffffffffffffffffffffffffffffffffffff82169050919050565b60006200012282620000f5565b9050919050565b620001348162000115565b81146200014057600080fd5b50565b600081519050620001548162000129565b92915050565b600060208284031215620001735762000172620000f0565b5b6000620001838482850162000143565b91505092915050565b600082825260208201905092915050565b7f496e76616c6964206f776e657200000000000000000000000000000000000000600082015250565b6000620001d5600d836200018c565b9150620001e2826200019d565b602082019050919050565b600060208201905081810360008301526200020881620001c6565b9050919050565b610bc2806200021f6000396000f3fe608060405234801561001057600080fd5b50600436106100415760003560e01c80638da5cb5b146100465780639c6c064014610064578063eec9d2cd14610080575b600080fd5b61004e6100b0565b60405161005b91906104dd565b60405180910390f35b61007e6004803603810190610079919061059d565b6100d4565b005b61009a60048036038101906100959190610611565b61035c565b6040516100a7919061066c565b60405180910390f35b60008054906101000a900473ffffffffffffffffffffffffffffffffffffffff1681565b60008054906101000a900473ffffffffffffffffffffffffffffffffffffffff1673ffffffffffffffffffffffffffffffffffffffff163373ffffffffffffffffffffffffffffffffffffffff1614610162576040517f08c379a0000000000000000000000000000000000000000000000000000000008152600401610159906106e4565b60405180910390fd5b60006001600086815260200190815260200160002060020154146101bb576040517f08c379a00000000000000000000000000000000000000000000000000000000081526004016101b290610750565b60405180910390fd5b6000801b8303610200576040517f08c379a00000000000000000000000000000000000000000000000000000000081526004016101f7906107bc565b60405180910390fd5b60405180608001604052808481526020013373ffffffffffffffffffffffffffffffffffffffff16815260200142815260200183838080601f016020809104026020016040519081016040528093929190818152602001838380828437600081840152601f19601f82011690508083019250505050505050815250600160008681526020019081526020016000206000820151816000015560208201518160010160006101000a81548173ffffffffffffffffffffffffffffffffffffffff021916908373ffffffffffffffffffffffffffffffffffffffff1602179055506040820151816002015560608201518160030190816102fe9190610a2c565b509050503373ffffffffffffffffffffffffffffffffffffffff1683857f3e3eda2719f0a475cf0e52fbbd3c2e48ae3a34b1978371e6c553f486e2c7f68b85854260405161034e93929190610b5a565b60405180910390a450505050565b60008060016000858152602001908152602001600020604051806080016040529081600082015481526020016001820160009054906101000a900473ffffffffffffffffffffffffffffffffffffffff1673ffffffffffffffffffffffffffffffffffffffff1673ffffffffffffffffffffffffffffffffffffffff168152602001600282015481526020016003820180546103f790610845565b80601f016020809104026020016040519081016040528092919081815260200182805461042390610845565b80156104705780601f1061044557610100808354040283529160200191610470565b820191906000526020600020905b81548152906001019060200180831161045357829003601f168201915b505050505081525050905060008160400151141580156104935750828160000151145b91505092915050565b600073ffffffffffffffffffffffffffffffffffffffff82169050919050565b60006104c78261049c565b9050919050565b6104d7816104bc565b82525050565b60006020820190506104f260008301846104ce565b92915050565b600080fd5b600080fd5b6000819050919050565b61051581610502565b811461052057600080fd5b50565b6000813590506105328161050c565b92915050565b600080fd5b600080fd5b600080fd5b60008083601f84011261055d5761055c610538565b5b8235905067ffffffffffffffff81111561057a5761057961053d565b5b60208301915083600182028301111561059657610595610542565b5b9250929050565b600080600080606085870312156105b7576105b66104f8565b5b60006105c587828801610523565b94505060206105d687828801610523565b935050604085013567ffffffffffffffff8111156105f7576105f66104fd565b5b61060387828801610547565b925092505092959194509250565b60008060408385031215610628576106276104f8565b5b600061063685828601610523565b925050602061064785828601610523565b9150509250929050565b60008115159050919050565b61066681610651565b82525050565b6000602082019050610681600083018461065d565b92915050565b600082825260208201905092915050565b7f4e6f74206f776e65720000000000000000000000000000000000000000000000600082015250565b60006106ce600983610687565b91506106d982610698565b602082019050919050565b600060208201905081810360008301526106fd816106c1565b9050919050565b7f4461746173657420657869737473000000000000000000000000000000000000600082015250565b600061073a600e83610687565b915061074582610704565b602082019050919050565b600060208201905081810360008301526107698161072d565b9050919050565b7f496e76616c696420686173680000000000000000000000000000000000000000600082015250565b60006107a6600c83610687565b91506107b182610770565b602082019050919050565b600060208201905081810360008301526107d581610799565b9050919050565b600081519050919050565b7f4e487b7100000000000000000000000000000000000000000000000000000000600052604160045260246000fd5b7f4e487b7100000000000000000000000000000000000000000000000000000000600052602260045260246000fd5b6000600282049050600182168061085d57607f821691505b6020821081036108705761086f610816565b5b50919050565b60008190508160005260206000209050919050565b60006020601f8301049050919050565b600082821b905092915050565b6000600883026108d87fffffffffffffffffffffffffffffffffffffffffffffffffffffffffffffffff8261089b565b6108e2868361089b565b95508019841693508086168417925050509392505050565b6000819050919050565b6000819050919050565b600061092961092461091f846108fa565b610904565b6108fa565b9050919050565b6000819050919050565b6109438361090e565b61095761094f82610930565b8484546108a8565b825550505050565b600090565b61096c61095f565b61097781848461093a565b505050565b5b8181101561099b57610990600082610964565b60018101905061097d565b5050565b601f8211156109e0576109b181610876565b6109ba8461088b565b810160208510156109c9578190505b6109dd6109d58561088b565b83018261097c565b50505b505050565b600082821c905092915050565b6000610a03600019846008026109e5565b1980831691505092915050565b6000610a1c83836109f2565b9150826002028217905092915050565b610a35826107dc565b67ffffffffffffffff811115610a4e57610a4d6107e7565b5b610a588254610845565b610a6382828561099f565b600060209050601f831160018114610a965760008415610a84578287015190505b610a8e8582610a10565b865550610af6565b601f198416610aa486610876565b60005b82811015610acc57848901518255600182019150602085019450602081019050610aa7565b86831015610ae95784890151610ae5601f8916826109f2565b8355505b6001600288020188555050505b505050505050565b82818337600083830152505050565b6000601f19601f8301169050919050565b6000610b2a8385610687565b9350610b37838584610afe565b610b4083610b0d565b840190509392505050565b610b54816108fa565b82525050565b60006040820190508181036000830152610b75818587610b1e565b9050610b846020830184610b4b565b94935050505056fea2646970667358221220fad0e94a6c17f147c6b220abd9cb00b21eb1f50d08d9a44a0af93a90e87be54164736f6c6343000814003360806040523480156200001157600080fd5b5060405162000de138038062000de183398181016040528101906200003791906200015a565b600073ffffffffffffffffffffffffffffffffffffffff168173ffffffffffffffffffffffffffffffffffffffff1603620000a9576040517f08c379a0000000000000000000000000000000000000000000000000000000008152600401620000a090620001ed565b60405180910390fd5b806000806101000a81548173ffffffffffffffffffffffffffffffffffffffff021916908373ffffffffffffffffffffffffffffffffffffffff160217905550506200020f565b600080fd5b600073ffffffffffffffffffffffffffffffffffffffff82169050919050565b60006200012282620000f5565b9050919050565b620001348162000115565b81146200014057600080fd5b50565b600081519050620001548162000129565b92915050565b600060208284031215620001735762000172620000f0565b5b6000620001838482850162000143565b91505092915050565b600082825260208201905092915050565b7f496e76616c6964206f776e657200000000000000000000000000000000000000600082015250565b6000620001d5600d836200018c565b9150620001e2826200019d565b602082019050919050565b600060208201905081810360008301526200020881620001c6565b9050919050565b610bc2806200021f6000396000f3fe608060405234801561001057600080fd5b50600436106100415760003560e01c80632391a1f5146100465780638da5cb5b14610076578063b383ca7414610094575b600080fd5b610060600480360381019061005b91906104dc565b6100b0565b60405161006d9190610537565b60405180910390f35b61007e6101f0565b60405161008b9190610593565b60405180910390f35b6100ae60048036038101906100a99190610613565b610214565b005b60008060016000858152602001908152602001600020604051806080016040529081600082015481526020016001820160009054906101000a900473ffffffffffffffffffffffffffffffffffffffff1673ffffffffffffffffffffffffffffffffffffffff1673ffffffffffffffffffffffffffffffffffffffff1681526020016002820154815260200160038201805461014b906106b6565b80601f0160208091040260200160405190810160405280929190818152602001828054610177906106b6565b80156101c45780601f10610199576101008083540402835291602001916101c4565b820191906000526020600020905b8154815290600101906020018083116101a757829003601f168201915b505050505081525050905060008160400151141580156101e75750828160000151145b91505092915050565b60008054906101000a900473ffffffffffffffffffffffffffffffffffffffff1681565b60008054906101000a900473ffffffffffffffffffffffffffffffffffffffff1673ffffffffffffffffffffffffffffffffffffffff163373ffffffffffffffffffffffffffffffffffffffff16146102a2576040517f08c379a000000000000000000000000000000000000000000000000000000000815260040161029990610744565b60405180910390fd5b60006001600086815260200190815260200160002060020154146102fb576040517f08c379a00000000000000000000000000000000000000000000000000000000081526004016102f2906107b0565b60405180910390fd5b6000801b8303610340576040517f08c379a00000000000000000000000000000000000000000000000000000000081526004016103379061081c565b60405180910390fd5b60405180608001604052808481526020013373ffffffffffffffffffffffffffffffffffffffff16815260200142815260200183838080601f016020809104026020016040519081016040528093929190818152602001838380828437600081840152601f19601f82011690508083019250505050505050815250600160008681526020019081526020016000206000820151816000015560208201518160010160006101000a81548173ffffffffffffffffffffffffffffffffffffffff021916908373ffffffffffffffffffffffffffffffffffffffff16021790555060408201518160020155606082015181600301908161043e9190610a2c565b509050503373ffffffffffffffffffffffffffffffffffffffff1683857fddab906cee88a1642e014753f19109d022695a8785560000a38b909e2563079485854260405161048e93929190610b5a565b60405180910390a450505050565b600080fd5b600080fd5b6000819050919050565b6104b9816104a6565b81146104c457600080fd5b50565b6000813590506104d6816104b0565b92915050565b600080604083850312156104f3576104f261049c565b5b6000610501858286016104c7565b9250506020610512858286016104c7565b9150509250929050565b60008115159050919050565b6105318161051c565b82525050565b600060208201905061054c6000830184610528565b92915050565b600073ffffffffffffffffffffffffffffffffffffffff82169050919050565b600061057d82610552565b9050919050565b61058d81610572565b82525050565b60006020820190506105a86000830184610584565b92915050565b600080fd5b600080fd5b600080fd5b60008083601f8401126105d3576105d26105ae565b5b8235905067ffffffffffffffff8111156105f0576105ef6105b3565b5b60208301915083600182028301111561060c5761060b6105b8565b5b9250929050565b6000806000806060858703121561062d5761062c61049c565b5b600061063b878288016104c7565b945050602061064c878288016104c7565b935050604085013567ffffffffffffffff81111561066d5761066c6104a1565b5b610679878288016105bd565b925092505092959194509250565b7f4e487b7100000000000000000000000000000000000000000000000000000000600052602260045260246000fd5b600060028204905060018216806106ce57607f821691505b6020821081036106e1576106e0610687565b5b50919050565b600082825260208201905092915050565b7f4e6f74206f776e65720000000000000000000000000000000000000000000000600082015250565b600061072e6009836106e7565b9150610739826106f8565b602082019050919050565b6000602082019050818103600083015261075d81610721565b9050919050565b7f4d65646961206578697374730000000000000000000000000000000000000000600082015250565b600061079a600c836106e7565b91506107a582610764565b602082019050919050565b600060208201905081810360008301526107c98161078d565b9050919050565b7f496e76616c696420686173680000000000000000000000000000000000000000600082015250565b6000610806600c836106e7565b9150610811826107d0565b602082019050919050565b60006020820190508181036000830152610835816107f9565b9050919050565b600081519050919050565b7f4e487b7100000000000000000000000000000000000000000000000000000000600052604160045260246000fd5b60008190508160005260206000209050919050565b60006020601f8301049050919050565b600082821b905092915050565b6000600883026108d87fffffffffffffffffffffffffffffffffffffffffffffffffffffffffffffffff8261089b565b6108e2868361089b565b95508019841693508086168417925050509392505050565b6000819050919050565b6000819050919050565b600061092961092461091f846108fa565b610904565b6108fa565b9050919050565b6000819050919050565b6109438361090e565b61095761094f82610930565b8484546108a8565b825550505050565b600090565b61096c61095f565b61097781848461093a565b505050565b5b8181101561099b57610990600082610964565b60018101905061097d565b5050565b601f8211156109e0576109b181610876565b6109ba8461088b565b810160208510156109c9578190505b6109dd6109d58561088b565b83018261097c565b50505b505050565b600082821c905092915050565b6000610a03600019846008026109e5565b1980831691505092915050565b6000610a1c83836109f2565b9150826002028217905092915050565b610a358261083c565b67ffffffffffffffff811115610a4e57610a4d610847565b5b610a5882546106b6565b610a6382828561099f565b600060209050601f831160018114610a965760008415610a84578287015190505b610a8e8582610a10565b865550610af6565b601f198416610aa486610876565b60005b82811015610acc57848901518255600182019150602085019450602081019050610aa7565b86831015610ae95784890151610ae5601f8916826109f2565b8355505b6001600288020188555050505b505050505050565b82818337600083830152505050565b6000601f19601f8301169050919050565b6000610b2a83856106e7565b9350610b37838584610afe565b610b4083610b0d565b840190509392505050565b610b54816108fa565b82525050565b60006040820190508181036000830152610b75818587610b1e565b9050610b846020830184610b4b565b94935050505056fea264697066735822122012e01cc8c2ed93d34cf04a4c0c3cb8d8333bfa164193eeb5cc825d2afc2fdda164736f6c63430008140033a26469706673582212202374f23b484f8f1aca646391433bb2581109d50b2ef9c0ff1abaaf6051b2772a64736f6c63430008140033",
  "linkReferences": {},
  "deployedLinkReferences": {}
}