{
  "_format": "hh-sol-artifact-1",
  "contractName": "MediaRegistryTemplate",
  "sourceName": "contracts/MediaRegistryTemplate.sol",
  "abi": [
    {
      "inputs": [
        {
          "internalType": "address",
          "name": "initialOwner",
          "type": "address"
        }
      ],
      "stateMutability": "nonpayable",
      "type": "constructor"
    },
    {
      "anonymous": false,
      "inputs": [
        {
          "indexed": true,
          "internalType": "bytes32",
          "name": "mediaId",
          "type": "bytes32"
        },
        {
          "indexed": true,
          "internalType": "bytes32",
          "name": "mediaHash",
          "type": "bytes32"
        },
        {
          "indexed": true,
          "internalType": "address",
          "name": "issuer",
          "type": "address"
        },
        {
          "indexed": false,
          "internalType": "string",
          "name": "uri",
          "type": "string"
        },
        {
          "indexed": false,
          "internalType": "uint256",
          "name": "timestamp",
          "type": "uint256"
        }
      ],
      "name": "MediaRegistered",
      "type": "event"
    },
    {
      "inputs": [],
      "name": "owner",
      "outputs": [
        {
          "internalType": "address",
          "name": "",
          "type": "address"
        }
      ],
      "stateMutability": "view",
      "type": "function"
    },
    {
      "inputs": [
        {
          "internalType": "bytes32",
          "name": "mediaId",
          "type": "bytes32"
        },
        {
          "internalType": "bytes32",
          "name": "mediaHash",
          "type": "bytes32"
        },
        {
          "internalType": "string",
          "name": "uri",
          "type": "string"
        }
      ],
      "name": "registerMedia",
      "outputs": [],
      "stateMutability": "nonpayable",
      "type": "function"
    },
    {
      "inputs": [
        {
          "internalType": "bytes32",
          "name": "mediaId",
          "type": "bytes32"
        },
        {
          "internalType": "bytes32",
          "name": "mediaHash",
          "type": "bytes32"
        }
      ],
      "name": "verifyImage",
      "outputs": [
        {
          "internalType": "bool",
          "name": "",
          "type": "bool"
        }
      ],
      "stateMutability": "view",
      "type": "function"
    }
  ],
  "bytecode": "0x60806040523480156200001157600080fd5b5060405162000de138038062000de183398181016040528101906200003791906200015a565b600073ffffffffffffffffffffffffffffffffffffffff168173ffffffffffffffffffffffffffffffffffffffff1603620000a9576040517f08c379a0000000000000000000000000000000000000000000000000000000008152600401620000a090620001ed565b60405180910390fd5b806000806101000a81548173ffffffffffffffffffffffffffffffffffffffff021916908373ffffffffffffffffffffffffffffffffffffffff160217905550506200020f565b600080fd5b600073ffffffffffffffffffffffffffffffffffffffff82169050919050565b60006200012282620000f5565b9050919050565b620001348162000115565b81146200014057600080fd5b50565b600081519050620001548162000129565b92915050565b600060208284031215620001735762000172620000f0565b5b6000620001838482850162000143565b91505092915050565b600082825260208201905092915050565b7f496e76616c6964206f776e657200000000000000000000000000000000000000600082015250565b6000620001d5600d836200018c565b9150620001e2826200019d565b602082019050919050565b600060208201905081810360008301526200020881620001c6565b9050919050565b610bc2806200021f6000396000f3fe608060405234801561001057600080fd5b50600436106100415760003560e01c80632391a1f5146100465780638da5cb5b14610076578063b383ca7414610094575b600080fd5b610060600480360381019061005b91906104dc565b6100b0565b60405161006d9190610537565b60405180910390f35b61007e6101f0565b60405161008b9190610593565b60405180910390f35b6100ae60048036038101906100a99190610613565b610214565b005b60008060016000858152602001908152602001600020604051806080016040529081600082015481526020016001820160009054906101000a900473ffffffffffffffffffffffffffffffffffffffff1673ffffffffffffffffffffffffffffffffffffffff1673ffffffffffffffffffffffffffffffffffffffff1681526020016002820154815260200160038201805461014b906106b6565b80601f0160208091040260200160405190810160405280929190818152602001828054610177906106b6565b80156101c45780601f10610199576101008083540402835291602001916101c4565b820191906000526020600020905b8154815290600101906020018083116101a757829003601f168201915b505050505081525050905060008160400151141580156101e75750828160000151145b91505092915050565b60008054906101000a900473ffffffffffffffffffffffffffffffffffffffff1681565b60008054906101000a900473ffffffffffffffffffffffffffffffffffffffff1673ffffffffffffffffffffffffffffffffffffffff163373ffffffffffffffffffffffffffffffffffffffff16146102a2576040517f08c379a000000000000000000000000000000000000000000000000000000000815260040161029990610744565b60405180910390fd5b60006001600086815260200190815260200160002060020154146102fb576040517f08c379a00000000000000000000000000000000000000000000000000000000081526004016102f2906107b0565b60405180910390fd5b6000801b8303610340576040517f08c379a00000000000000000000000000000000000000000000000000000000081526004016103379061081c565b60405180910390fd5b60405180608001604052808481526020013373ffffffffffffffffffffffffffffffffffffffff16815260200142815260200183838080601f016020809104026020016040519081016040528093929190818152602001838380828437600081840152601f19601f82011690508083019250505050505050815250600160008681526020019081526020016000206000820151816000015560208201518160010160006101000a81548173ffffffffffffffffffffffffffffffffffffffff021916908373ffffffffffffffffffffffffffffffffffffffff16021790555060408201518160020155606082015181600301908161043e9190610a2c565b509050503373ffffffffffffffffffffffffffffffffffffffff1683857fddab906cee88a1642e014753f19109d022695a8785560000a38b909e2563079485854260405161048e93929190610b5a565b60405180910390a450505050565b600080fd5b600080fd5b6000819050919050565b6104b9816104a6565b81146104c457600080fd5b50565b6000813590506104d6816104b0565b92915050565b600080604083850312156104f3576104f261049c565b5b6000610501858286016104c7565b9250506020610512858286016104c7565b9150509250929050565b60008115159050919050565b6105318161051c565b82525050565b600060208201905061054c6000830184610528565b92915050565b600073ffffffffffffffffffffffffffffffffffffffff82169050919050565b600061057d82610552565b9050919050565b61058d81610572565b82525050565b60006020820190506105a86000830184610584565b92915050565b600080fd5b600080fd5b600080fd5b60008083601f8401126105d3576105d26105ae565b5b8235905067ffffffffffffffff8111156105f0576105ef6105b3565b5b60208301915083600182028301111561060c5761060b6105b8565b5b9250929050565b6000806000806060858703121561062d5761062c61049c565b5b600061063b878288016104c7565b945050602061064c878288016104c7565b935050604085013567ffffffffffffffff81111561066d5761066c6104a1565b5b610679878288016105bd565b925092505092959194509250565b7f4e487b7100000000000000000000000000000000000000000000000000000000600052602260045260246000fd5b600060028204905060018216806106ce57607f821691505b6020821081036106e1576106e0610687565b5b50919050565b600082825260208201905092915050565b7f4e6f74206f776e65720000000000000000000000000000000000000000000000600082015250565b600061072e6009836106e7565b9150610739826106f8565b602082019050919050565b6000602082019050818103600083015261075d81610721565b9050919050565b7f4d65646961206578697374730000000000000000000000000000000000000000600082015250565b600061079a600c836106e7565b91506107a582610764565b602082019050919050565b600060208201905081810360008301526107c98161078d565b9050919050565b7f496e76616c696420686173680000000000000000000000000000000000000000600082015250565b6000610806600c836106e7565b9150610811826107d0565b602082019050919050565b60006020820190508181036000830152610835816107f9565b9050919050565b600081519050919050565b7f4e487b7100000000000000000000000000000000000000000000000000000000600052604160045260246000fd5b60008190508160005260206000209050919050565b60006020601f8301049050919050565b600082821b905092915050565b6000600883026108d87fffffffffffffffffffffffffffffffffffffffffffffffffffffffffffffffff8261089b565b6108e2868361089b565b95508019841693508086168417925050509392505050565b6000819050919050565b6000819050919050565b600061092961092461091f846108fa565b610904565b6108fa565b9050919050565b6000819050919050565b6109438361090e565b61095761094f82610930565b8484546108a8565b825550505050565b600090565b61096c61095f565b61097781848461093a565b505050565b5b8181101561099b57610990600082610964565b60018101905061097d565b5050565b601f8211156109e0576109b181610876565b6109ba8461088b565b810160208510156109c9578190505b6109dd6109d58561088b565b83018261097c565b50505b505050565b600082821c905092915050565b6000610a03600019846008026109e5565b1980831691505092915050565b6000610a1c83836109f2565b9150826002028217905092915050565b610a358261083c565b67ffffffffffffffff811115610a4e57610a4d610847565b5b610a5882546106b6565b610a6382828561099f565b600060209050601f831160018114610a965760008415610a84578287015190505b610a8e8582610a10565b865550610af6565b601f198416610aa486610876565b60005b82811015610acc57848901518255600182019150602085019450602081019050610aa7565b86831015610ae95784890151610ae5601f8916826109f2565b8355505b6001600288020188555050505b505050505050565b82818337600083830152505050565b6000601f19601f8301169050919050565b6000610b2a83856106e7565b9350610b37838584610afe565b610b4083610b0d565b840190509392505050565b610b54816108fa565b82525050565b60006040820190508181036000830152610b75818587610b1e565b9050610b846020830184610b4b565b94935050505056fea264697066735822122012e01cc8c2ed93d34cf04a4c0c3cb8d8333bfa164193eeb5cc825d2afc2fdda164736f6c63430008140033",
  "linkReferences": {},
  "deployedLinkReferences": {}
}